{
  "_format": "hh-sol-artifact-1",
  "contractName": "EscrowHub",
  "sourceName": "contracts/EscrowHub.sol",
  "abi": [
    {
      "inputs": [],
      "stateMutability": "nonpayable",
      "type": "constructor"
    },
    {
      "anonymous": false,
      "inputs": [
        {
          "indexed": false,
          "internalType": "address",
          "name": "previousAdmin",
          "type": "address"
        },
        {
          "indexed": false,
          "internalType": "address",
          "name": "newAdmin",
          "type": "address"
        }
      ],
      "name": "AdminChanged",
      "type": "event"
    },
    {
      "anonymous": false,
      "inputs": [
        {
          "indexed": true,
          "internalType": "address",
          "name": "beacon",
          "type": "address"
        }
      ],
      "name": "BeaconUpgraded",
      "type": "event"
    },
    {
      "anonymous": false,
      "inputs": [
        {
          "indexed": true,
          "internalType": "uint256",
          "name": "escrowId",
          "type": "uint256"
        },
        {
          "indexed": false,
          "internalType": "string",
          "name": "cid",
          "type": "string"
        },
        {
          "indexed": false,
          "internalType": "address",
          "name": "buyer",
          "type": "address"
        },
        {
          "indexed": false,
          "internalType": "address",
          "name": "seller",
          "type": "address"
        },
        {
          "indexed": true,
          "internalType": "uint256",
          "name": "amount",
          "type": "uint256"
        },
        {
          "indexed": true,
          "internalType": "uint256",
          "name": "fee",
          "type": "uint256"
        },
        {
          "indexed": false,
          "internalType": "enum EscrowHub.EscrowState",
          "name": "state",
          "type": "uint8"
        }
      ],
      "name": "EscrowCreated",
      "type": "event"
    },
    {
      "anonymous": false,
      "inputs": [
        {
          "indexed": true,
          "internalType": "uint256",
          "name": "escrowId",
          "type": "uint256"
        },
        {
          "indexed": false,
          "internalType": "string",
          "name": "cid",
          "type": "string"
        },
        {
          "indexed": false,
          "internalType": "address",
          "name": "buyer",
          "type": "address"
        },
        {
          "indexed": false,
          "internalType": "address",
          "name": "seller",
          "type": "address"
        },
        {
          "indexed": false,
          "internalType": "uint256",
          "name": "amount",
          "type": "uint256"
        },
        {
          "indexed": false,
          "internalType": "uint256",
          "name": "fee",
          "type": "uint256"
        },
        {
          "indexed": true,
          "internalType": "enum EscrowHub.EscrowState",
          "name": "state",
          "type": "uint8"
        }
      ],
      "name": "EscrowUpdated",
      "type": "event"
    },
    {
      "anonymous": false,
      "inputs": [
        {
          "indexed": false,
          "internalType": "uint8",
          "name": "version",
          "type": "uint8"
        }
      ],
      "name": "Initialized",
      "type": "event"
    },
    {
      "anonymous": false,
      "inputs": [
        {
          "indexed": true,
          "internalType": "address",
          "name": "previousOwner",
          "type": "address"
        },
        {
          "indexed": true,
          "internalType": "address",
          "name": "newOwner",
          "type": "address"
        }
      ],
      "name": "OwnershipTransferred",
      "type": "event"
    },
    {
      "anonymous": false,
      "inputs": [
        {
          "indexed": true,
          "internalType": "address",
          "name": "implementation",
          "type": "address"
        }
      ],
      "name": "Upgraded",
      "type": "event"
    },
    {
      "inputs": [
        {
          "internalType": "uint256",
          "name": "_escrowId",
          "type": "uint256"
        }
      ],
      "name": "claimAfterExpire",
      "outputs": [],
      "stateMutability": "nonpayable",
      "type": "function"
    },
    {
      "inputs": [
        {
          "internalType": "uint256",
          "name": "_escrowId",
          "type": "uint256"
        }
      ],
      "name": "deliver",
      "outputs": [],
      "stateMutability": "nonpayable",
      "type": "function"
    },
    {
      "inputs": [
        {
          "internalType": "uint256",
          "name": "escrowId",
          "type": "uint256"
        }
      ],
      "name": "fetchEscrow",
      "outputs": [
        {
          "components": [
            {
              "internalType": "uint256",
              "name": "id",
              "type": "uint256"
            },
            {
              "internalType": "string",
              "name": "cid",
              "type": "string"
            },
            {
              "internalType": "address payable",
              "name": "buyer",
              "type": "address"
            },
            {
              "internalType": "address payable",
              "name": "seller",
              "type": "address"
            },
            {
              "internalType": "uint256",
              "name": "amount",
              "type": "uint256"
            },
            {
              "internalType": "uint256",
              "name": "fee",
              "type": "uint256"
            },
            {
              "internalType": "uint256",
              "name": "createdAt",
              "type": "uint256"
            },
            {
              "internalType": "uint256",
              "name": "expireAt",
              "type": "uint256"
            },
            {
              "internalType": "uint256",
              "name": "clearAt",
              "type": "uint256"
            },
            {
              "internalType": "enum EscrowHub.EscrowState",
              "name": "state",
              "type": "uint8"
            }
          ],
          "internalType": "struct EscrowHub.Escrow",
          "name": "",
          "type": "tuple"
        }
      ],
      "stateMutability": "view",
      "type": "function"
    },
    {
      "inputs": [
        {
          "internalType": "uint256",
          "name": "cursor",
          "type": "uint256"
        },
        {
          "internalType": "uint256",
          "name": "perPageCount",
          "type": "uint256"
        }
      ],
      "name": "fetchEscrowsPaginated",
      "outputs": [
        {
          "components": [
            {
              "internalType": "uint256",
              "name": "id",
              "type": "uint256"
            },
            {
              "internalType": "string",
              "name": "cid",
              "type": "string"
            },
            {
              "internalType": "address payable",
              "name": "buyer",
              "type": "address"
            },
            {
              "internalType": "address payable",
              "name": "seller",
              "type": "address"
            },
            {
              "internalType": "uint256",
              "name": "amount",
              "type": "uint256"
            },
            {
              "internalType": "uint256",
              "name": "fee",
              "type": "uint256"
            },
            {
              "internalType": "uint256",
              "name": "createdAt",
              "type": "uint256"
            },
            {
              "internalType": "uint256",
              "name": "expireAt",
              "type": "uint256"
            },
            {
              "internalType": "uint256",
              "name": "clearAt",
              "type": "uint256"
            },
            {
              "internalType": "enum EscrowHub.EscrowState",
              "name": "state",
              "type": "uint8"
            }
          ],
          "internalType": "struct EscrowHub.Escrow[]",
          "name": "data",
          "type": "tuple[]"
        },
        {
          "internalType": "uint256",
          "name": "totalItemCount",
          "type": "uint256"
        },
        {
          "internalType": "bool",
          "name": "hasNextPage",
          "type": "bool"
        },
        {
          "internalType": "uint256",
          "name": "nextCursor",
          "type": "uint256"
        }
      ],
      "stateMutability": "view",
      "type": "function"
    },
    {
      "inputs": [],
      "name": "fetchMyEscrows",
      "outputs": [
        {
          "components": [
            {
              "internalType": "uint256",
              "name": "id",
              "type": "uint256"
            },
            {
              "internalType": "string",
              "name": "cid",
              "type": "string"
            },
            {
              "internalType": "address payable",
              "name": "buyer",
              "type": "address"
            },
            {
              "internalType": "address payable",
              "name": "seller",
              "type": "address"
            },
            {
              "internalType": "uint256",
              "name": "amount",
              "type": "uint256"
            },
            {
              "internalType": "uint256",
              "name": "fee",
              "type": "uint256"
            },
            {
              "internalType": "uint256",
              "name": "createdAt",
              "type": "uint256"
            },
            {
              "internalType": "uint256",
              "name": "expireAt",
              "type": "uint256"
            },
            {
              "internalType": "uint256",
              "name": "clearAt",
              "type": "uint256"
            },
            {
              "internalType": "enum EscrowHub.EscrowState",
              "name": "state",
              "type": "uint8"
            }
          ],
          "internalType": "struct EscrowHub.Escrow[]",
          "name": "",
          "type": "tuple[]"
        }
      ],
      "stateMutability": "view",
      "type": "function"
    },
    {
      "inputs": [],
      "name": "initialize",
      "outputs": [],
      "stateMutability": "nonpayable",
      "type": "function"
    },
    {
      "inputs": [
        {
          "internalType": "address",
          "name": "_seller",
          "type": "address"
        },
        {
          "internalType": "string",
          "name": "_cid",
          "type": "string"
        },
        {
          "internalType": "uint256",
          "name": "expireIn",
          "type": "uint256"
        }
      ],
      "name": "newEscrow",
      "outputs": [],
      "stateMutability": "payable",
      "type": "function"
    },
    {
      "inputs": [],
      "name": "owner",
      "outputs": [
        {
          "internalType": "address",
          "name": "",
          "type": "address"
        }
      ],
      "stateMutability": "view",
      "type": "function"
    },
    {
      "inputs": [],
      "name": "proxiableUUID",
      "outputs": [
        {
          "internalType": "bytes32",
          "name": "",
          "type": "bytes32"
        }
      ],
      "stateMutability": "view",
      "type": "function"
    },
    {
      "inputs": [
        {
          "internalType": "uint256",
          "name": "_escrowId",
          "type": "uint256"
        }
      ],
      "name": "refund",
      "outputs": [],
      "stateMutability": "nonpayable",
      "type": "function"
    },
    {
      "inputs": [],
      "name": "renounceOwnership",
      "outputs": [],
      "stateMutability": "nonpayable",
      "type": "function"
    },
    {
      "inputs": [
        {
          "internalType": "address",
          "name": "newOwner",
          "type": "address"
        }
      ],
      "name": "transferOwnership",
      "outputs": [],
      "stateMutability": "nonpayable",
      "type": "function"
    },
    {
      "inputs": [
        {
          "internalType": "address",
          "name": "newImplementation",
          "type": "address"
        }
      ],
      "name": "upgradeTo",
      "outputs": [],
      "stateMutability": "nonpayable",
      "type": "function"
    },
    {
      "inputs": [
        {
          "internalType": "address",
          "name": "newImplementation",
          "type": "address"
        },
        {
          "internalType": "bytes",
          "name": "data",
          "type": "bytes"
        }
      ],
      "name": "upgradeToAndCall",
      "outputs": [],
      "stateMutability": "payable",
      "type": "function"
    }
  ],
  "bytecode": "0x60a06040523073ffffffffffffffffffffffffffffffffffffffff1660809073ffffffffffffffffffffffffffffffffffffffff1660601b8152503480156200004757600080fd5b50620000586200005e60201b60201c565b62000209565b600060019054906101000a900460ff1615620000b1576040517f08c379a0000000000000000000000000000000000000000000000000000000008152600401620000a8906200015d565b60405180910390fd5b60ff801660008054906101000a900460ff1660ff161015620001235760ff6000806101000a81548160ff021916908360ff1602179055507f7f26b83ff96e1f2b6a682f133852f6798a09c465da95921460cefb384740249860ff6040516200011a91906200017f565b60405180910390a15b565b6000620001346027836200019c565b91506200014182620001ba565b604082019050919050565b6200015781620001ad565b82525050565b60006020820190508181036000830152620001788162000125565b9050919050565b60006020820190506200019660008301846200014c565b92915050565b600082825260208201905092915050565b600060ff82169050919050565b7f496e697469616c697a61626c653a20636f6e747261637420697320696e69746960008201527f616c697a696e6700000000000000000000000000000000000000000000000000602082015250565b60805160601c614fa66200024460003960008181610ec501528181610f54015281816114e60152818161157501526116250152614fa66000f3fe6080604052600436106100dd5760003560e01c8063715018a61161007f5780639b0731af116100595780639b0731af14610244578063d0f81cbf1461026d578063ede6d084146102aa578063f2fde38b146102ea576100dd565b8063715018a6146101eb5780638129fc1c146102025780638da5cb5b14610219576100dd565b80633bd5d173116100bb5780633bd5d1731461015f5780634f1ef2861461018857806352d1902d146101a45780636fbac0fa146101cf576100dd565b8063261582b9146100e2578063278ecde11461010d5780633659cfe614610136575b600080fd5b3480156100ee57600080fd5b506100f7610313565b604051610104919061407f565b60405180910390f35b34801561011957600080fd5b50610134600480360381019061012f9190613936565b610a58565b005b34801561014257600080fd5b5061015d60048036038101906101589190613829565b610ec3565b005b34801561016b57600080fd5b5061018660048036038101906101819190613936565b611072565b005b6101a2600480360381019061019d9190613852565b6114e4565b005b3480156101b057600080fd5b506101b9611621565b6040516101c691906140ed565b60405180910390f35b6101e960048036038101906101e491906138a6565b6116da565b005b3480156101f757600080fd5b50610200611c4f565b005b34801561020e57600080fd5b50610217611c63565b005b34801561022557600080fd5b5061022e611db1565b60405161023b9190614064565b60405180910390f35b34801561025057600080fd5b5061026b60048036038101906102669190613936565b611ddb565b005b34801561027957600080fd5b50610294600480360381019061028f9190613936565b6122a6565b6040516102a1919061446b565b60405180910390f35b3480156102b657600080fd5b506102d160048036038101906102cc919061395f565b6124d5565b6040516102e194939291906140a1565b60405180910390f35b3480156102f657600080fd5b50610311600480360381019061030c9190613829565b612d7b565b005b60603373ffffffffffffffffffffffffffffffffffffffff16610334611db1565b73ffffffffffffffffffffffffffffffffffffffff16141561067557600061035c60fb612dff565b905060008167ffffffffffffffff8111156103a0577f4e487b7100000000000000000000000000000000000000000000000000000000600052604160045260246000fd5b6040519080825280602002602001820160405280156103d957816020015b6103c66135c0565b8152602001906001900390816103be5790505b50905060005b8281101561066a5760fc60006001836103f891906145a5565b8152602001908152602001600020604051806101400160405290816000820154815260200160018201805461042c906147da565b80601f0160208091040260200160405190810160405280929190818152602001828054610458906147da565b80156104a55780601f1061047a576101008083540402835291602001916104a5565b820191906000526020600020905b81548152906001019060200180831161048857829003601f168201915b505050505081526020016002820160009054906101000a900473ffffffffffffffffffffffffffffffffffffffff1673ffffffffffffffffffffffffffffffffffffffff1673ffffffffffffffffffffffffffffffffffffffff1681526020016003820160009054906101000a900473ffffffffffffffffffffffffffffffffffffffff1673ffffffffffffffffffffffffffffffffffffffff1673ffffffffffffffffffffffffffffffffffffffff16815260200160048201548152602001600582015481526020016006820154815260200160078201548152602001600882015481526020016009820160009054906101000a900460ff1660038111156105d7577f4e487b7100000000000000000000000000000000000000000000000000000000600052602160045260246000fd5b600381111561060f577f4e487b7100000000000000000000000000000000000000000000000000000000600052602160045260246000fd5b8152505082828151811061064c577f4e487b7100000000000000000000000000000000000000000000000000000000600052603260045260246000fd5b602002602001018190525080806106629061483d565b9150506103df565b508092505050610a55565b600060fd60003373ffffffffffffffffffffffffffffffffffffffff1673ffffffffffffffffffffffffffffffffffffffff1681526020019081526020016000205467ffffffffffffffff8111156106f6577f4e487b7100000000000000000000000000000000000000000000000000000000600052604160045260246000fd5b60405190808252806020026020018201604052801561072f57816020015b61071c6135c0565b8152602001906001900390816107145790505b50905060005b60fd60003373ffffffffffffffffffffffffffffffffffffffff1673ffffffffffffffffffffffffffffffffffffffff16815260200190815260200160002054811015610a4f5760fc600060fe60003373ffffffffffffffffffffffffffffffffffffffff1673ffffffffffffffffffffffffffffffffffffffff16815260200190815260200160002060006001856107ce91906145a5565b81526020019081526020016000205481526020019081526020016000206040518061014001604052908160008201548152602001600182018054610811906147da565b80601f016020809104026020016040519081016040528092919081815260200182805461083d906147da565b801561088a5780601f1061085f5761010080835404028352916020019161088a565b820191906000526020600020905b81548152906001019060200180831161086d57829003601f168201915b505050505081526020016002820160009054906101000a900473ffffffffffffffffffffffffffffffffffffffff1673ffffffffffffffffffffffffffffffffffffffff1673ffffffffffffffffffffffffffffffffffffffff1681526020016003820160009054906101000a900473ffffffffffffffffffffffffffffffffffffffff1673ffffffffffffffffffffffffffffffffffffffff1673ffffffffffffffffffffffffffffffffffffffff16815260200160048201548152602001600582015481526020016006820154815260200160078201548152602001600882015481526020016009820160009054906101000a900460ff1660038111156109bc577f4e487b7100000000000000000000000000000000000000000000000000000000600052602160045260246000fd5b60038111156109f4577f4e487b7100000000000000000000000000000000000000000000000000000000600052602160045260246000fd5b81525050828281518110610a31577f4e487b7100000000000000000000000000000000000000000000000000000000600052603260045260246000fd5b60200260200101819052508080610a479061483d565b915050610735565b50809150505b90565b803373ffffffffffffffffffffffffffffffffffffffff1660fc600083815260200190815260200160002060030160009054906101000a900473ffffffffffffffffffffffffffffffffffffffff1673ffffffffffffffffffffffffffffffffffffffff161480610afb57503373ffffffffffffffffffffffffffffffffffffffff16610ae3611db1565b73ffffffffffffffffffffffffffffffffffffffff16145b610b3a576040517f08c379a0000000000000000000000000000000000000000000000000000000008152600401610b319061424b565b60405180910390fd5b60026001541415610b80576040517f08c379a0000000000000000000000000000000000000000000000000000000008152600401610b779061444b565b60405180910390fd5b600260018190555060006003811115610bc2577f4e487b7100000000000000000000000000000000000000000000000000000000600052602160045260246000fd5b60fc600084815260200190815260200160002060090160009054906101000a900460ff166003811115610c1e577f4e487b7100000000000000000000000000000000000000000000000000000000600052602160045260246000fd5b14610c5e576040517f08c379a0000000000000000000000000000000000000000000000000000000008152600401610c559061426b565b60405180910390fd5b60fc600083815260200190815260200160002060020160009054906101000a900473ffffffffffffffffffffffffffffffffffffffff1673ffffffffffffffffffffffffffffffffffffffff166108fc60fc60008581526020019081526020016000206005015460fc600086815260200190815260200160002060040154610ce691906145a5565b9081150290604051600060405180830381858888f19350505050158015610d11573d6000803e3d6000fd5b504260fc600084815260200190815260200160002060080181905550600360fc600084815260200190815260200160002060090160006101000a81548160ff02191690836003811115610d8d577f4e487b7100000000000000000000000000000000000000000000000000000000600052602160045260246000fd5b0217905550600380811115610dcb577f4e487b7100000000000000000000000000000000000000000000000000000000600052602160045260246000fd5b827facfcb6d1fa91c83112102ce242b5502826bbc1a8114bc5030f4b4bd844dc3e6760fc600086815260200190815260200160002060010160fc600087815260200190815260200160002060020160009054906101000a900473ffffffffffffffffffffffffffffffffffffffff1660fc600088815260200190815260200160002060030160009054906101000a900473ffffffffffffffffffffffffffffffffffffffff1660fc60008981526020019081526020016000206004015460fc60008a815260200190815260200160002060050154604051610eb0959493929190614191565b60405180910390a3600180819055505050565b7f000000000000000000000000000000000000000000000000000000000000000073ffffffffffffffffffffffffffffffffffffffff163073ffffffffffffffffffffffffffffffffffffffff161415610f52576040517f08c379a0000000000000000000000000000000000000000000000000000000008152600401610f499061420b565b60405180910390fd5b7f000000000000000000000000000000000000000000000000000000000000000073ffffffffffffffffffffffffffffffffffffffff16610f91612e0d565b73ffffffffffffffffffffffffffffffffffffffff1614610fe7576040517f08c379a0000000000000000000000000000000000000000000000000000000008152600401610fde9061422b565b60405180910390fd5b610ff081612e64565b61106f81600067ffffffffffffffff811115611035577f4e487b7100000000000000000000000000000000000000000000000000000000600052604160045260246000fd5b6040519080825280601f01601f1916602001820160405280156110675781602001600182028036833780820191505090505b506000612e6f565b50565b803373ffffffffffffffffffffffffffffffffffffffff1660fc600083815260200190815260200160002060020160009054906101000a900473ffffffffffffffffffffffffffffffffffffffff1673ffffffffffffffffffffffffffffffffffffffff1614611117576040517f08c379a000000000000000000000000000000000000000000000000000000000815260040161110e9061428b565b60405180910390fd5b6002600154141561115d576040517f08c379a00000000000000000000000000000000000000000000000000000000081526004016111549061444b565b60405180910390fd5b60026001819055506000600381111561119f577f4e487b7100000000000000000000000000000000000000000000000000000000600052602160045260246000fd5b60fc600084815260200190815260200160002060090160009054906101000a900460ff1660038111156111fb577f4e487b7100000000000000000000000000000000000000000000000000000000600052602160045260246000fd5b1461123b576040517f08c379a00000000000000000000000000000000000000000000000000000000081526004016112329061436b565b60405180910390fd5b60fc600083815260200190815260200160002060030160009054906101000a900473ffffffffffffffffffffffffffffffffffffffff1673ffffffffffffffffffffffffffffffffffffffff166108fc60fc6000858152602001908152602001600020600401549081150290604051600060405180830381858888f193505050501580156112cd573d6000803e3d6000fd5b506112d6611db1565b73ffffffffffffffffffffffffffffffffffffffff166108fc60fc6000858152602001908152602001600020600501549081150290604051600060405180830381858888f19350505050158015611331573d6000803e3d6000fd5b504260fc600084815260200190815260200160002060080181905550600160fc600084815260200190815260200160002060090160006101000a81548160ff021916908360038111156113ad577f4e487b7100000000000000000000000000000000000000000000000000000000600052602160045260246000fd5b0217905550600160038111156113ec577f4e487b7100000000000000000000000000000000000000000000000000000000600052602160045260246000fd5b827facfcb6d1fa91c83112102ce242b5502826bbc1a8114bc5030f4b4bd844dc3e6760fc600086815260200190815260200160002060010160fc600087815260200190815260200160002060020160009054906101000a900473ffffffffffffffffffffffffffffffffffffffff1660fc600088815260200190815260200160002060030160009054906101000a900473ffffffffffffffffffffffffffffffffffffffff1660fc60008981526020019081526020016000206004015460fc60008a8152602001908152602001600020600501546040516114d1959493929190614191565b60405180910390a3600180819055505050565b7f000000000000000000000000000000000000000000000000000000000000000073ffffffffffffffffffffffffffffffffffffffff163073ffffffffffffffffffffffffffffffffffffffff161415611573576040517f08c379a000000000000000000000000000000000000000000000000000000000815260040161156a9061420b565b60405180910390fd5b7f000000000000000000000000000000000000000000000000000000000000000073ffffffffffffffffffffffffffffffffffffffff166115b2612e0d565b73ffffffffffffffffffffffffffffffffffffffff1614611608576040517f08c379a00000000000000000000000000000000000000000000000000000000081526004016115ff9061422b565b60405180910390fd5b61161182612e64565b61161d82826001612e6f565b5050565b60007f000000000000000000000000000000000000000000000000000000000000000073ffffffffffffffffffffffffffffffffffffffff163073ffffffffffffffffffffffffffffffffffffffff16146116b1576040517f08c379a00000000000000000000000000000000000000000000000000000000081526004016116a8906142ab565b60405180910390fd5b7f360894a13ba1a3210667c828492db98dca3e2076cc3735a920a3ca505d382bbc60001b905090565b60026001541415611720576040517f08c379a00000000000000000000000000000000000000000000000000000000081526004016117179061444b565b60405180910390fd5b600260018190555061173260fb612fec565b600061173e60fb612dff565b9050678ac7230489e8000034101561178b576040517f08c379a0000000000000000000000000000000000000000000000000000000008152600401611782906143cb565b60405180910390fd5b6000606460023461179c919061462c565b6117a691906145fb565b9050600081346117b69190614686565b90506040518061014001604052808481526020018681526020013373ffffffffffffffffffffffffffffffffffffffff1681526020018773ffffffffffffffffffffffffffffffffffffffff1681526020018281526020018381526020014281526020018581526020016000815260200160006003811115611861577f4e487b7100000000000000000000000000000000000000000000000000000000600052602160045260246000fd5b81525060fc600085815260200190815260200160002060008201518160000155602082015181600101908051906020019061189d929190613677565b5060408201518160020160006101000a81548173ffffffffffffffffffffffffffffffffffffffff021916908373ffffffffffffffffffffffffffffffffffffffff16021790555060608201518160030160006101000a81548173ffffffffffffffffffffffffffffffffffffffff021916908373ffffffffffffffffffffffffffffffffffffffff1602179055506080820151816004015560a0820151816005015560c0820151816006015560e0820151816007015561010082015181600801556101208201518160090160006101000a81548160ff021916908360038111156119b1577f4e487b7100000000000000000000000000000000000000000000000000000000600052602160045260246000fd5b0217905550905050600160fd60003373ffffffffffffffffffffffffffffffffffffffff1673ffffffffffffffffffffffffffffffffffffffff16815260200190815260200160002054611a0591906145a5565b60fd60003373ffffffffffffffffffffffffffffffffffffffff1673ffffffffffffffffffffffffffffffffffffffff168152602001908152602001600020819055508260fe60003373ffffffffffffffffffffffffffffffffffffffff1673ffffffffffffffffffffffffffffffffffffffff168152602001908152602001600020600060fd60003373ffffffffffffffffffffffffffffffffffffffff1673ffffffffffffffffffffffffffffffffffffffff16815260200190815260200160002054815260200190815260200160002081905550600160fd60008873ffffffffffffffffffffffffffffffffffffffff1673ffffffffffffffffffffffffffffffffffffffff16815260200190815260200160002054611b2891906145a5565b60fd60008873ffffffffffffffffffffffffffffffffffffffff1673ffffffffffffffffffffffffffffffffffffffff168152602001908152602001600020819055508260fe60008873ffffffffffffffffffffffffffffffffffffffff1673ffffffffffffffffffffffffffffffffffffffff168152602001908152602001600020600060fd60008a73ffffffffffffffffffffffffffffffffffffffff1673ffffffffffffffffffffffffffffffffffffffff168152602001908152602001600020548152602001908152602001600020819055508181847fb9e71d1f685b313accb4809b03f62dc9601718815d3758ed626f3802e7f005b188338b6000604051611c389493929190614145565b60405180910390a450505060018081905550505050565b611c57613002565b611c616000613080565b565b60008060019054906101000a900460ff16159050808015611c945750600160008054906101000a900460ff1660ff16105b80611cc15750611ca330613146565b158015611cc05750600160008054906101000a900460ff1660ff16145b5b611d00576040517f08c379a0000000000000000000000000000000000000000000000000000000008152600401611cf7906142eb565b60405180910390fd5b60016000806101000a81548160ff021916908360ff1602179055508015611d3d576001600060016101000a81548160ff0219169083151502179055505b611d45613169565b611d4d6131c2565b611d5561321b565b8015611dae5760008060016101000a81548160ff0219169083151502179055507f7f26b83ff96e1f2b6a682f133852f6798a09c465da95921460cefb38474024986001604051611da59190614108565b60405180910390a15b50565b6000606560009054906101000a900473ffffffffffffffffffffffffffffffffffffffff16905090565b803373ffffffffffffffffffffffffffffffffffffffff1660fc600083815260200190815260200160002060030160009054906101000a900473ffffffffffffffffffffffffffffffffffffffff1673ffffffffffffffffffffffffffffffffffffffff1614611e80576040517f08c379a0000000000000000000000000000000000000000000000000000000008152600401611e779061440b565b60405180910390fd5b60026001541415611ec6576040517f08c379a0000000000000000000000000000000000000000000000000000000008152600401611ebd9061444b565b60405180910390fd5b60026001819055504260fc6000848152602001908152602001600020600701541115611f27576040517f08c379a0000000000000000000000000000000000000000000000000000000008152600401611f1e9061432b565b60405180910390fd5b60006003811115611f61577f4e487b7100000000000000000000000000000000000000000000000000000000600052602160045260246000fd5b60fc600084815260200190815260200160002060090160009054906101000a900460ff166003811115611fbd577f4e487b7100000000000000000000000000000000000000000000000000000000600052602160045260246000fd5b14611ffd576040517f08c379a0000000000000000000000000000000000000000000000000000000008152600401611ff4906143ab565b60405180910390fd5b60fc600083815260200190815260200160002060030160009054906101000a900473ffffffffffffffffffffffffffffffffffffffff1673ffffffffffffffffffffffffffffffffffffffff166108fc60fc6000858152602001908152602001600020600401549081150290604051600060405180830381858888f1935050505015801561208f573d6000803e3d6000fd5b50612098611db1565b73ffffffffffffffffffffffffffffffffffffffff166108fc60fc6000858152602001908152602001600020600501549081150290604051600060405180830381858888f193505050501580156120f3573d6000803e3d6000fd5b504260fc600084815260200190815260200160002060080181905550600260fc600084815260200190815260200160002060090160006101000a81548160ff0219169083600381111561216f577f4e487b7100000000000000000000000000000000000000000000000000000000600052602160045260246000fd5b0217905550600260038111156121ae577f4e487b7100000000000000000000000000000000000000000000000000000000600052602160045260246000fd5b827facfcb6d1fa91c83112102ce242b5502826bbc1a8114bc5030f4b4bd844dc3e6760fc600086815260200190815260200160002060010160fc600087815260200190815260200160002060020160009054906101000a900473ffffffffffffffffffffffffffffffffffffffff1660fc600088815260200190815260200160002060030160009054906101000a900473ffffffffffffffffffffffffffffffffffffffff1660fc60008981526020019081526020016000206004015460fc60008a815260200190815260200160002060050154604051612293959493929190614191565b60405180910390a3600180819055505050565b6122ae6135c0565b60fc600083815260200190815260200160002060405180610140016040529081600082015481526020016001820180546122e7906147da565b80601f0160208091040260200160405190810160405280929190818152602001828054612313906147da565b80156123605780601f1061233557610100808354040283529160200191612360565b820191906000526020600020905b81548152906001019060200180831161234357829003601f168201915b505050505081526020016002820160009054906101000a900473ffffffffffffffffffffffffffffffffffffffff1673ffffffffffffffffffffffffffffffffffffffff1673ffffffffffffffffffffffffffffffffffffffff1681526020016003820160009054906101000a900473ffffffffffffffffffffffffffffffffffffffff1673ffffffffffffffffffffffffffffffffffffffff1673ffffffffffffffffffffffffffffffffffffffff16815260200160048201548152602001600582015481526020016006820154815260200160078201548152602001600882015481526020016009820160009054906101000a900460ff166003811115612492577f4e487b7100000000000000000000000000000000000000000000000000000000600052602160045260246000fd5b60038111156124ca577f4e487b7100000000000000000000000000000000000000000000000000000000600052602160045260246000fd5b815250509050919050565b60606000806000808590503373ffffffffffffffffffffffffffffffffffffffff166124ff611db1565b73ffffffffffffffffffffffffffffffffffffffff1614156128aa57600061252760fb612dff565b9050600060019050888261253b9190614686565b83111561255957888261254e9190614686565b925060009050612572565b88826125659190614686565b83141561257157600090505b5b60008367ffffffffffffffff8111156125b4577f4e487b7100000000000000000000000000000000000000000000000000000000600052604160045260246000fd5b6040519080825280602002602001820160405280156125ed57816020015b6125da6135c0565b8152602001906001900390816125d25790505b50905060005b848110156128895760fc60006001838e61260d91906145a5565b61261791906145a5565b8152602001908152602001600020604051806101400160405290816000820154815260200160018201805461264b906147da565b80601f0160208091040260200160405190810160405280929190818152602001828054612677906147da565b80156126c45780601f10612699576101008083540402835291602001916126c4565b820191906000526020600020905b8154815290600101906020018083116126a757829003601f168201915b505050505081526020016002820160009054906101000a900473ffffffffffffffffffffffffffffffffffffffff1673ffffffffffffffffffffffffffffffffffffffff1673ffffffffffffffffffffffffffffffffffffffff1681526020016003820160009054906101000a900473ffffffffffffffffffffffffffffffffffffffff1673ffffffffffffffffffffffffffffffffffffffff1673ffffffffffffffffffffffffffffffffffffffff16815260200160048201548152602001600582015481526020016006820154815260200160078201548152602001600882015481526020016009820160009054906101000a900460ff1660038111156127f6577f4e487b7100000000000000000000000000000000000000000000000000000000600052602160045260246000fd5b600381111561282e577f4e487b7100000000000000000000000000000000000000000000000000000000600052602160045260246000fd5b8152505082828151811061286b577f4e487b7100000000000000000000000000000000000000000000000000000000600052603260045260246000fd5b602002602001018190525080806128819061483d565b9150506125f3565b50808383868d61289991906145a5565b975097509750975050505050612d72565b6000600190508760fd60003373ffffffffffffffffffffffffffffffffffffffff1673ffffffffffffffffffffffffffffffffffffffff168152602001908152602001600020546128fb9190614686565b821115612958578760fd60003373ffffffffffffffffffffffffffffffffffffffff1673ffffffffffffffffffffffffffffffffffffffff1681526020019081526020016000205461294d9190614686565b9150600090506129b0565b8760fd60003373ffffffffffffffffffffffffffffffffffffffff1673ffffffffffffffffffffffffffffffffffffffff168152602001908152602001600020546129a39190614686565b8214156129af57600090505b5b60008267ffffffffffffffff8111156129f2577f4e487b7100000000000000000000000000000000000000000000000000000000600052604160045260246000fd5b604051908082528060200260200182016040528015612a2b57816020015b612a186135c0565b815260200190600190039081612a105790505b50905060005b83811015612d175760fc600060fe60003373ffffffffffffffffffffffffffffffffffffffff1673ffffffffffffffffffffffffffffffffffffffff16815260200190815260200160002060006001858f612a8c91906145a5565b612a9691906145a5565b81526020019081526020016000205481526020019081526020016000206040518061014001604052908160008201548152602001600182018054612ad9906147da565b80601f0160208091040260200160405190810160405280929190818152602001828054612b05906147da565b8015612b525780601f10612b2757610100808354040283529160200191612b52565b820191906000526020600020905b815481529060010190602001808311612b3557829003601f168201915b505050505081526020016002820160009054906101000a900473ffffffffffffffffffffffffffffffffffffffff1673ffffffffffffffffffffffffffffffffffffffff1673ffffffffffffffffffffffffffffffffffffffff1681526020016003820160009054906101000a900473ffffffffffffffffffffffffffffffffffffffff1673ffffffffffffffffffffffffffffffffffffffff1673ffffffffffffffffffffffffffffffffffffffff16815260200160048201548152602001600582015481526020016006820154815260200160078201548152602001600882015481526020016009820160009054906101000a900460ff166003811115612c84577f4e487b7100000000000000000000000000000000000000000000000000000000600052602160045260246000fd5b6003811115612cbc577f4e487b7100000000000000000000000000000000000000000000000000000000600052602160045260246000fd5b81525050828281518110612cf9577f4e487b7100000000000000000000000000000000000000000000000000000000600052603260045260246000fd5b60200260200101819052508080612d0f9061483d565b915050612a31565b508060fd60003373ffffffffffffffffffffffffffffffffffffffff1673ffffffffffffffffffffffffffffffffffffffff1681526020019081526020016000205483858c612d6691906145a5565b96509650965096505050505b92959194509250565b612d83613002565b600073ffffffffffffffffffffffffffffffffffffffff168173ffffffffffffffffffffffffffffffffffffffff161415612df3576040517f08c379a0000000000000000000000000000000000000000000000000000000008152600401612dea906141eb565b60405180910390fd5b612dfc81613080565b50565b600081600001549050919050565b6000612e3b7f360894a13ba1a3210667c828492db98dca3e2076cc3735a920a3ca505d382bbc60001b61326c565b60000160009054906101000a900473ffffffffffffffffffffffffffffffffffffffff16905090565b612e6c613002565b50565b612e9b7f4910fdfa16fed3260ed0e7147f7cc6da11a60208b5b9406d12a635614ffd914360001b613276565b60000160009054906101000a900460ff1615612ebf57612eba83613280565b612fe7565b8273ffffffffffffffffffffffffffffffffffffffff166352d1902d6040518163ffffffff1660e01b815260040160206040518083038186803b158015612f0557600080fd5b505afa925050508015612f3657506040513d601f19601f82011682018060405250810190612f33919061390d565b60015b612f75576040517f08c379a0000000000000000000000000000000000000000000000000000000008152600401612f6c9061430b565b60405180910390fd5b7f360894a13ba1a3210667c828492db98dca3e2076cc3735a920a3ca505d382bbc60001b8114612fda576040517f08c379a0000000000000000000000000000000000000000000000000000000008152600401612fd1906142cb565b60405180910390fd5b50612fe6838383613339565b5b505050565b6001816000016000828254019250508190555050565b61300a613365565b73ffffffffffffffffffffffffffffffffffffffff16613028611db1565b73ffffffffffffffffffffffffffffffffffffffff161461307e576040517f08c379a00000000000000000000000000000000000000000000000000000000081526004016130759061438b565b60405180910390fd5b565b6000606560009054906101000a900473ffffffffffffffffffffffffffffffffffffffff16905081606560006101000a81548173ffffffffffffffffffffffffffffffffffffffff021916908373ffffffffffffffffffffffffffffffffffffffff1602179055508173ffffffffffffffffffffffffffffffffffffffff168173ffffffffffffffffffffffffffffffffffffffff167f8be0079c531659141344cd1fd0a4f28419497f9722a3daafe3b4186f6b6457e060405160405180910390a35050565b6000808273ffffffffffffffffffffffffffffffffffffffff163b119050919050565b600060019054906101000a900460ff166131b8576040517f08c379a00000000000000000000000000000000000000000000000000000000081526004016131af9061442b565b60405180910390fd5b6131c061336d565b565b600060019054906101000a900460ff16613211576040517f08c379a00000000000000000000000000000000000000000000000000000000081526004016132089061442b565b60405180910390fd5b6132196133c5565b565b600060019054906101000a900460ff1661326a576040517f08c379a00000000000000000000000000000000000000000000000000000000081526004016132619061442b565b60405180910390fd5b565b6000819050919050565b6000819050919050565b61328981613146565b6132c8576040517f08c379a00000000000000000000000000000000000000000000000000000000081526004016132bf9061434b565b60405180910390fd5b806132f57f360894a13ba1a3210667c828492db98dca3e2076cc3735a920a3ca505d382bbc60001b61326c565b60000160006101000a81548173ffffffffffffffffffffffffffffffffffffffff021916908373ffffffffffffffffffffffffffffffffffffffff16021790555050565b61334283613426565b60008251118061334f5750805b156133605761335e8383613475565b505b505050565b600033905090565b600060019054906101000a900460ff166133bc576040517f08c379a00000000000000000000000000000000000000000000000000000000081526004016133b39061442b565b60405180910390fd5b60018081905550565b600060019054906101000a900460ff16613414576040517f08c379a000000000000000000000000000000000000000000000000000000000815260040161340b9061442b565b60405180910390fd5b61342461341f613365565b613080565b565b61342f81613280565b8073ffffffffffffffffffffffffffffffffffffffff167fbc7cd75a20ee27fd9adebab32041f755214dbc6bffa90cc0225b39da2e5c2d3b60405160405180910390a250565b606061348083613146565b6134bf576040517f08c379a00000000000000000000000000000000000000000000000000000000081526004016134b6906143eb565b60405180910390fd5b6000808473ffffffffffffffffffffffffffffffffffffffff16846040516134e7919061404d565b600060405180830381855af49150503d8060008114613522576040519150601f19603f3d011682016040523d82523d6000602084013e613527565b606091505b509150915061354f8282604051806060016040528060278152602001614f4a60279139613559565b9250505092915050565b60608315613569578290506135b9565b60008351111561357c5782518084602001fd5b816040517f08c379a00000000000000000000000000000000000000000000000000000000081526004016135b09190614123565b60405180910390fd5b9392505050565b6040518061014001604052806000815260200160608152602001600073ffffffffffffffffffffffffffffffffffffffff168152602001600073ffffffffffffffffffffffffffffffffffffffff168152602001600081526020016000815260200160008152602001600081526020016000815260200160006003811115613671577f4e487b7100000000000000000000000000000000000000000000000000000000600052602160045260246000fd5b81525090565b828054613683906147da565b90600052602060002090601f0160209004810192826136a557600085556136ec565b82601f106136be57805160ff19168380011785556136ec565b828001600101855582156136ec579182015b828111156136eb5782518255916020019190600101906136d0565b5b5090506136f991906136fd565b5090565b5b808211156137165760008160009055506001016136fe565b5090565b600061372d613728846144b2565b61448d565b90508281526020810184848401111561374557600080fd5b613750848285614798565b509392505050565b600061376b613766846144e3565b61448d565b90508281526020810184848401111561378357600080fd5b61378e848285614798565b509392505050565b6000813590506137a581614f04565b92915050565b6000815190506137ba81614f1b565b92915050565b600082601f8301126137d157600080fd5b81356137e184826020860161371a565b91505092915050565b600082601f8301126137fb57600080fd5b813561380b848260208601613758565b91505092915050565b60008135905061382381614f32565b92915050565b60006020828403121561383b57600080fd5b600061384984828501613796565b91505092915050565b6000806040838503121561386557600080fd5b600061387385828601613796565b925050602083013567ffffffffffffffff81111561389057600080fd5b61389c858286016137c0565b9150509250929050565b6000806000606084860312156138bb57600080fd5b60006138c986828701613796565b935050602084013567ffffffffffffffff8111156138e657600080fd5b6138f2868287016137ea565b925050604061390386828701613814565b9150509250925092565b60006020828403121561391f57600080fd5b600061392d848285016137ab565b91505092915050565b60006020828403121561394857600080fd5b600061395684828501613814565b91505092915050565b6000806040838503121561397257600080fd5b600061398085828601613814565b925050602061399185828601613814565b9150509250929050565b60006139a78383613e7b565b905092915050565b6139b88161473e565b82525050565b6139c7816146cc565b82525050565b6139d6816146ba565b82525050565b60006139e782614539565b6139f18185614567565b935083602082028501613a0385614514565b8060005b85811015613a3f5784840389528151613a20858261399b565b9450613a2b8361455a565b925060208a01995050600181019050613a07565b50829750879550505050505092915050565b613a5a816146de565b82525050565b613a69816146ea565b82525050565b6000613a7a82614544565b613a848185614578565b9350613a948185602086016147a7565b80840191505092915050565b613aa981614750565b82525050565b613ab881614750565b82525050565b613ac781614762565b82525050565b6000613ad88261454f565b613ae28185614583565b9350613af28185602086016147a7565b613afb81614971565b840191505092915050565b6000613b118261454f565b613b1b8185614594565b9350613b2b8185602086016147a7565b613b3481614971565b840191505092915050565b60008154613b4c816147da565b613b568186614594565b94506001821660008114613b715760018114613b8357613bb6565b60ff1983168652602086019350613bb6565b613b8c85614524565b60005b83811015613bae57815481890152600182019150602081019050613b8f565b808801955050505b50505092915050565b6000613bcc602683614594565b9150613bd782614982565b604082019050919050565b6000613bef602c83614594565b9150613bfa826149d1565b604082019050919050565b6000613c12602c83614594565b9150613c1d82614a20565b604082019050919050565b6000613c35602c83614594565b9150613c4082614a6f565b604082019050919050565b6000613c58603083614594565b9150613c6382614abe565b604082019050919050565b6000613c7b601583614594565b9150613c8682614b0d565b602082019050919050565b6000613c9e603883614594565b9150613ca982614b36565b604082019050919050565b6000613cc1602983614594565b9150613ccc82614b85565b604082019050919050565b6000613ce4602e83614594565b9150613cef82614bd4565b604082019050919050565b6000613d07602e83614594565b9150613d1282614c23565b604082019050919050565b6000613d2a601883614594565b9150613d3582614c72565b602082019050919050565b6000613d4d602d83614594565b9150613d5882614c9b565b604082019050919050565b6000613d70603583614594565b9150613d7b82614cea565b604082019050919050565b6000613d93602083614594565b9150613d9e82614d39565b602082019050919050565b6000613db6603383614594565b9150613dc182614d62565b604082019050919050565b6000613dd9602983614594565b9150613de482614db1565b604082019050919050565b6000613dfc602683614594565b9150613e0782614e00565b604082019050919050565b6000613e1f601683614594565b9150613e2a82614e4f565b602082019050919050565b6000613e42602b83614594565b9150613e4d82614e78565b604082019050919050565b6000613e65601f83614594565b9150613e7082614ec7565b602082019050919050565b600061014083016000830151613e94600086018261402f565b5060208301518482036020860152613eac8282613acd565b9150506040830151613ec160408601826139be565b506060830151613ed460608601826139be565b506080830151613ee7608086018261402f565b5060a0830151613efa60a086018261402f565b5060c0830151613f0d60c086018261402f565b5060e0830151613f2060e086018261402f565b50610100830151613f3561010086018261402f565b50610120830151613f4a610120860182613aa0565b508091505092915050565b600061014083016000830151613f6e600086018261402f565b5060208301518482036020860152613f868282613acd565b9150506040830151613f9b60408601826139be565b506060830151613fae60608601826139be565b506080830151613fc1608086018261402f565b5060a0830151613fd460a086018261402f565b5060c0830151613fe760c086018261402f565b5060e0830151613ffa60e086018261402f565b5061010083015161400f61010086018261402f565b50610120830151614024610120860182613aa0565b508091505092915050565b61403881614727565b82525050565b61404781614727565b82525050565b60006140598284613a6f565b915081905092915050565b600060208201905061407960008301846139cd565b92915050565b6000602082019050818103600083015261409981846139dc565b905092915050565b600060808201905081810360008301526140bb81876139dc565b90506140ca602083018661403e565b6140d76040830185613a51565b6140e4606083018461403e565b95945050505050565b60006020820190506141026000830184613a60565b92915050565b600060208201905061411d6000830184613abe565b92915050565b6000602082019050818103600083015261413d8184613b06565b905092915050565b6000608082019050818103600083015261415f8187613b06565b905061416e60208301866139cd565b61417b60408301856139cd565b6141886060830184613aaf565b95945050505050565b600060a08201905081810360008301526141ab8188613b3f565b90506141ba60208301876139af565b6141c760408301866139af565b6141d4606083018561403e565b6141e1608083018461403e565b9695505050505050565b6000602082019050818103600083015261420481613bbf565b9050919050565b6000602082019050818103600083015261422481613be2565b9050919050565b6000602082019050818103600083015261424481613c05565b9050919050565b6000602082019050818103600083015261426481613c28565b9050919050565b6000602082019050818103600083015261428481613c4b565b9050919050565b600060208201905081810360008301526142a481613c6e565b9050919050565b600060208201905081810360008301526142c481613c91565b9050919050565b600060208201905081810360008301526142e481613cb4565b9050919050565b6000602082019050818103600083015261430481613cd7565b9050919050565b6000602082019050818103600083015261432481613cfa565b9050919050565b6000602082019050818103600083015261434481613d1d565b9050919050565b6000602082019050818103600083015261436481613d40565b9050919050565b6000602082019050818103600083015261438481613d63565b9050919050565b600060208201905081810360008301526143a481613d86565b9050919050565b600060208201905081810360008301526143c481613da9565b9050919050565b600060208201905081810360008301526143e481613dcc565b9050919050565b6000602082019050818103600083015261440481613def565b9050919050565b6000602082019050818103600083015261442481613e12565b9050919050565b6000602082019050818103600083015261444481613e35565b9050919050565b6000602082019050818103600083015261446481613e58565b9050919050565b600060208201905081810360008301526144858184613f55565b905092915050565b60006144976144a8565b90506144a3828261480c565b919050565b6000604051905090565b600067ffffffffffffffff8211156144cd576144cc614942565b5b6144d682614971565b9050602081019050919050565b600067ffffffffffffffff8211156144fe576144fd614942565b5b61450782614971565b9050602081019050919050565b6000819050602082019050919050565b60008190508160005260206000209050919050565b600081519050919050565b600081519050919050565b600081519050919050565b6000602082019050919050565b600082825260208201905092915050565b600081905092915050565b600082825260208201905092915050565b600082825260208201905092915050565b60006145b082614727565b91506145bb83614727565b9250827fffffffffffffffffffffffffffffffffffffffffffffffffffffffffffffffff038211156145f0576145ef614886565b5b828201905092915050565b600061460682614727565b915061461183614727565b925082614621576146206148b5565b5b828204905092915050565b600061463782614727565b915061464283614727565b9250817fffffffffffffffffffffffffffffffffffffffffffffffffffffffffffffffff048311821515161561467b5761467a614886565b5b828202905092915050565b600061469182614727565b915061469c83614727565b9250828210156146af576146ae614886565b5b828203905092915050565b60006146c582614707565b9050919050565b60006146d782614707565b9050919050565b60008115159050919050565b6000819050919050565b600081905061470282614ef0565b919050565b600073ffffffffffffffffffffffffffffffffffffffff82169050919050565b6000819050919050565b600060ff82169050919050565b600061474982614774565b9050919050565b600061475b826146f4565b9050919050565b600061476d82614731565b9050919050565b600061477f82614786565b9050919050565b600061479182614707565b9050919050565b82818337600083830152505050565b60005b838110156147c55780820151818401526020810190506147aa565b838111156147d4576000848401525b50505050565b600060028204905060018216806147f257607f821691505b6020821081141561480657614805614913565b5b50919050565b61481582614971565b810181811067ffffffffffffffff8211171561483457614833614942565b5b80604052505050565b600061484882614727565b91507fffffffffffffffffffffffffffffffffffffffffffffffffffffffffffffffff82141561487b5761487a614886565b5b600182019050919050565b7f4e487b7100000000000000000000000000000000000000000000000000000000600052601160045260246000fd5b7f4e487b7100000000000000000000000000000000000000000000000000000000600052601260045260246000fd5b7f4e487b7100000000000000000000000000000000000000000000000000000000600052602160045260246000fd5b7f4e487b7100000000000000000000000000000000000000000000000000000000600052602260045260246000fd5b7f4e487b7100000000000000000000000000000000000000000000000000000000600052604160045260246000fd5b6000601f19601f8301169050919050565b7f4f776e61626c653a206e6577206f776e657220697320746865207a65726f206160008201527f6464726573730000000000000000000000000000000000000000000000000000602082015250565b7f46756e6374696f6e206d7573742062652063616c6c6564207468726f7567682060008201527f64656c656761746563616c6c0000000000000000000000000000000000000000602082015250565b7f46756e6374696f6e206d7573742062652063616c6c6564207468726f7567682060008201527f6163746976652070726f78790000000000000000000000000000000000000000602082015250565b7f4f6e6c792073656c6c6572206f72204f776e65722063616e20706572666f726d60008201527f207468697320616374696f6e0000000000000000000000000000000000000000602082015250565b7f43616e277420726566756e64207468697320657363726f772e20416c7265616460008201527f792075706461746564206265666f726500000000000000000000000000000000602082015250565b7f4f6e6c792042757965722043616e204163636573730000000000000000000000600082015250565b7f555550535570677261646561626c653a206d757374206e6f742062652063616c60008201527f6c6564207468726f7567682064656c656761746563616c6c0000000000000000602082015250565b7f45524331393637557067726164653a20756e737570706f727465642070726f7860008201527f6961626c65555549440000000000000000000000000000000000000000000000602082015250565b7f496e697469616c697a61626c653a20636f6e747261637420697320616c72656160008201527f647920696e697469616c697a6564000000000000000000000000000000000000602082015250565b7f45524331393637557067726164653a206e657720696d706c656d656e7461746960008201527f6f6e206973206e6f742055555053000000000000000000000000000000000000602082015250565b7f457363726f772069736e27742065787069726564207965740000000000000000600082015250565b7f455243313936373a206e657720696d706c656d656e746174696f6e206973206e60008201527f6f74206120636f6e747261637400000000000000000000000000000000000000602082015250565b7f596f752063616e27742064656c69766572207468697320657363726f772e204160008201527f6c72656164792075706461746564206265666f72650000000000000000000000602082015250565b7f4f776e61626c653a2063616c6c6572206973206e6f7420746865206f776e6572600082015250565b7f596f752063616e277420636c61696d207468697320657363726f772e20416c7260008201527f656164792075706461746564206265666f726500000000000000000000000000602082015250565b7f457363726f77206d757374206265206c6172676572207468656e206d696e696d60008201527f756d20616d6f756e740000000000000000000000000000000000000000000000602082015250565b7f416464726573733a2064656c65676174652063616c6c20746f206e6f6e2d636f60008201527f6e74726163740000000000000000000000000000000000000000000000000000602082015250565b7f4f6e6c792053656c6c65722043616e2041636365737300000000000000000000600082015250565b7f496e697469616c697a61626c653a20636f6e7472616374206973206e6f74206960008201527f6e697469616c697a696e67000000000000000000000000000000000000000000602082015250565b7f5265656e7472616e637947756172643a207265656e7472616e742063616c6c00600082015250565b60048110614f0157614f006148e4565b5b50565b614f0d816146ba565b8114614f1857600080fd5b50565b614f24816146ea565b8114614f2f57600080fd5b50565b614f3b81614727565b8114614f4657600080fd5b5056fe416464726573733a206c6f772d6c6576656c2064656c65676174652063616c6c206661696c6564a2646970667358221220491d7d51b4bbf574dcc0353b3c6d06657bf12db44b95cf574ff632256abb755164736f6c63430008040033",
  "linkReferences": {},
  "deployedLinkReferences": {}
}